:020000040800F2
:1000000000500020F90A0008490B0008490B0008BD
:10001000490B0008490B0008490B000800000000CC
:10002000000000000000000000000000490B000874
:10003000490B000800000000490B0008E906000811
:10004000490B0008490B0008490B0008490B000840
:10005000490B0008490B0008490B0008490B000830
:10006000490B0008490B0008490B0008490B000820
:10007000490B0008490B0008490B0008490B000810
:10008000490B0008490B0008490B0008490B000800
:10009000490B0008490B0008490B0008490B0008F0
:1000A000490B0008490B0008490B0008490B0008E0
:1000B000490B0008490B0008490B0008490B0008D0
:1000C000490B0008490B0008490B0008490B0008C0
:1000D000490B0008490B0008490B0008490B0008B0
:1000E000490B0008490B000800000000490B0008FC
:1000F000490B0008490B0008490B0008490B000890
:10010000490B0008490B0008490B0008490B00087F
:10011000490B0008490B0008490B0008490B00086F
:10012000490B0008490B0008490B0008490B00085F
:1001300010B5054C237833B9044B13B10448AFF321
:1001400000800123237010BD00000020000000008B
:100150004C0C000808B5034B1BB103490348AFF32F
:10016000008008BD00000000040000204C0C0008C6
:1001700080B400AF074B1B6903F08003002B05D050
:10018000044B054A5A60034B044A5A6000BFBD46FF
:1001900080BC70470020024023016745AB89EFCD4A
:1001A00080B400AF044B1B69034A43F08003136122
:1001B00000BFBD4680BC70470020024080B582B0C1
:1001C00000AF0346FB80FFF7D3FF00BF1B4BDB688C
:1001D00003F00103002BF9D1184B1B69174A43F0B8
:1001E00002031361FB889B02144A03F1006353610D
:1001F000124B1B69114A43F04003136100BF0F4BC0
:10020000DB6803F00103002BF9D10C4BDB680B4AD0
:1002100043F02003D360094B1B69084A23F04003D5
:100220001361064B1B69054A23F002031361FFF7B4
:10023000B7FF00BF0837BD4680BD00BF00200240A9
:1002400080B582B000AF78600B467B80FFF790FFEF
:1002500000BF144BDB6803F00103002BF9D1114BF5
:100260001B69104A43F0010313617B687A881A8086
:1002700000BF0C4BDB6803F00103002BF9D1094BE5
:10028000DB68084A43F02003D360064B1B69054A2C
:1002900023F001031361FFF783FF00BF0837BD465A
:1002A00080BD00BF0020024080B584B000AF03468F
:1002B0000A46FB801346BB80FA88BB8813447B81C7
:1002C000FB88FB6007E0FB689BB21846FFF776FFF0
:1002D000FB680133FB607B89FA689A42F3DD00BF5B
:1002E00000BF1037BD4680BD80B483B000AF7860DA
:1002F0000B46FB701346BB70FB78072B15D87B6849
:100300001B68FA7892000F2101FA02F2D2431A40D8
:100310007B681A607B681B68B978FA78920001FAEA
:1003200002F21A437B681A601AE0FB780F2B17D889
:10033000FB78083BFB707B685B68FA7892000F21C2
:1003400001FA02F2D2431A407B685A607B685B680C
:10035000B978FA78920001FA02F21A437B685A607F
:1003600000BF0C37BD4680BC704780B483B000AF7F
:100370000346FB7102E0FB79013BFB71FB79002B2B
:10038000F9D100BF00BF0C37BD4680BC704780B5B7
:1003900082B000AF0346FB71FB79184600F014FBF6
:1003A00000BF0837BD4680BD80B582B000AF0346B0
:1003B000FB71214BDB68C3F30B02FB791B0203F4D7
:1003C00070431D491343CB601B4BDB681A4A23F46F
:1003D0008063D360184BDB68174A43F40063D36033
:1003E0000120FFF7C2FF144BDB68134A23F40063BC
:1003F000D3600220FFF7CBFF0F4BDB68C3F30B0288
:10040000FB791B039BB20C491343CB600A4BDB689F
:10041000094A43F40063D3600120FFF7A6FF064BAF
:10042000DB68054A23F40063D3600520FFF7AFFFC4
:1004300000BF0837BD4680BD000C014080B500AF4D
:100440001420FFF7A4FF104BDB680F4A23F400636E
:10045000D3600220FFF789FF3320FFF7A5FF32208A
:10046000FFF7A2FF2820FFF79FFF0120FFF79CFF67
:100470000220FFF799FF0E20FFF796FF0620FFF7F7
:1004800093FF00BF80BD00BF000C014080B582B06B
:1004900000AF0346FB71214BDB68C3F30B02FB7912
:1004A0001B0203F470431D491343CB601B4BDB68F5
:1004B0001A4A43F48063D360184BDB68174A43F44D
:1004C0000063D3600120FFF750FF144BDB68134A31
:1004D00023F40063D3600120FFF759FF0F4BDB6863
:1004E000C3F30B02FB791B039BB20C491343CB6094
:1004F0000A4BDB68094A43F40063D3600120FFF72D
:1005000034FF064BDB68054A23F40063D360052003
:10051000FFF73DFF00BF0837BD4680BD000C01401E
:1005200080B584B000AF78600023FB7309E0FB7BEB
:100530007A6813441B781846FFF7A8FFFB7B01334A
:10054000FB73FB7B7A6813441B78002BEFD100BF51
:1005500000BF1037BD4680BD80B500AF0120FFF75A
:1005600023FF8020FFF720FF0520FFF710FF00BFCB
:1005700080BD80B582B000AF03463A60FB710B4688
:10058000BB71FB79002B0FD1BB790F2B0CD897F9DE
:10059000063003F00F035BB263F07F035BB2DBB2A4
:1005A0001846FFF701FF11E0FB79012B0ED1BB7953
:1005B0000F2B0BD897F9063003F00F035BB263F0F3
:1005C0003F035BB2DBB21846FFF7EEFE3868FFF779
:1005D000A7FF00BF0837BD4680BD000080B400AF54
:1005E000114B1B68104A43F00103136000BF0E4B10
:1005F0001B6803F00203002BF9D00B4B0A4A5B681F
:100600005360094B084A5B685360074B064A5B68B6
:100610005360054B5B68044A23F00303536000BF3B
:10062000BD4680BC704700BF0010024080B500AFDF
:10063000254B9B69244A43F004039361224B9B6939
:10064000214A43F00803936101220A211F48FFF762
:100650004BFE012208211D48FFF746FE01220A2118
:100660001B48FFF741FE01220B211948FFF73CFE12
:1006700001220C211648FFF737FE01220D211448F4
:10068000FFF732FE01220E211148FFF72DFE012255
:100690000F210F48FFF728FE082200210B48FFF723
:1006A00023FE0A4BDB68094A43F00103D3600822AA
:1006B00001210648FFF718FE044BDB68034A43F0AC
:1006C0000203D36000BF80BD00100240000801405B
:1006D000000C014080B400AF024B1B681846BD46B9
:1006E00080BC70471C00002080B400AF044B1B6826
:1006F0000133034A136000BFBD4680BC704700BF92
:100700001C00002080B590B000AF0023FB63FFF712
:1007100065FF00F03DF900F07BF9FFF787FFFFF779
:100720008DFE8C4A00210020FFF723FF8A4A00211A
:100730000120FFF71EFF4FF4FA6000F045F9874BE8
:100740009B6803F00103002B40F0C580834BDB68FE
:10075000824A43F48063D360FFF7FEFE8048FFF7D0
:10076000DFFE804A00210120FFF703FF40F6B8308A
:1007700000F02AF9422000F08BF900BF00F0A6F942
:100780000346432BFAD1784A00210120FFF7F1FEFE
:1007900040F6B83000F018F90023BB630EE000F01B
:1007A00095F9034687F8213007F11002BB6B13441B
:1007B00097F821201A70BB6B0133BB63BB6B032B13
:1007C000EDDD3B7C1A467B7C1B021A44BB7C1B0480
:1007D0001A44FB7C1B061344BB623B1D0A221946CC
:1007E000B86A00F0CAF9FFF7B7FE604A032100209B
:1007F000FFF7BFFE3B1D1A4605210120FFF7B9FE9A
:1008000040F6B83000F0E0F800BF00F05FF90346B2
:10081000442BFAD1BB6A9B0A9BB2BA6AC2F30902A3
:10082000002A14BF01220022D2B21344FB84BB6A07
:100830005B08BB844E4B7B63FB8C19460420FFF79F
:1008400033FDFFF789FE4B4A00210020FFF791FEA0
:10085000494A04210120FFF78CFE452000F018F9D9
:1008600000BF00F033F90346462BFAD100233B6367
:1008700016E000F02BF903467B8400F027F90346CD
:100880001B029AB27B8C13447B847B8C1946786B59
:10089000FFF7D6FC7B6B02337B633B6B01333B631F
:1008A000BB8C3A6B9A42E4DB00BF00F00FF90346C1
:1008B000472BFAD14B2000F0EBF8FFF74DFE2F4805
:1008C000FFF72EFE2E4A02210120FFF752FE4FF4C1
:1008D000FA6000F079F82B4B00229A600023FB624B
:1008E0000CE01E4BDB681D4A83F48063D3604FF439
:1008F000FA7000F069F8FB6A0133FB62FB6A042BB3
:10090000EFDD1B4B1B687B617B6983F3088800BFAD
:100910001D4B174A9A601D4B1B68FB61FB69BB614D
:100920000E4BDB680D4A23F48063D360BB699847A4
:10093000FFF7D0FE0246FB6BD31AB3F5FA7FF7D36D
:10094000064BDB68054A83F48063D360FFF7C2FE81
:10095000F863EDE7640C0008780C0008000801401B
:100960008C0C0008A00C0008B40C0008C80C00088F
:1009700000100008D40C0008E80C0008F00C000877
:10098000040D00080010024000ED00E00410000813
:1009900080B400AF0B4BDB690A4A43F00103D3611B
:1009A0004FF0804300229A624FF0804341F63F723D
:1009B000DA624FF0804301221A6000BFBD4680BC5E
:1009C000704700BF0010024080B485B000AF78606F
:1009D0000023FB6012E000BF4FF080431B6903F06F
:1009E0000103002BF8D04FF080431B694FF0804289
:1009F00023F001031361FB680133FB60FA687B6835
:100A00009A42E8D300BF00BF1437BD4680BC704790
:100A100080B500AF1B4BDB691A4A43F40033D36146
:100A2000092202211848FFF75FFC0822032116481B
:100A3000FFF75AFC144BDB68134A43F00803D360FA
:100A4000124B0022DA60114BDB68104A23F480530A
:100A5000D3600E4B40F241329A600C4BDB680B4A7C
:100A600043F00403D360094BDB68084A43F00803F2
:100A7000D360064BDB68054A43F40053D36000BFE4
:100A800080BD00BF0010024000080140004400404B
:100A900080B483B000AF0346FB7100BF0A4B1B68F4
:100AA00003F08003002BF9D0074AFB79536000BFA5
:100AB000054B1B6803F04003002BF9D000BF00BFBB
:100AC0000C37BD4680BC70470044004080B483B002
:100AD00000AF00BF074B1B6803F02003002BF9D0C9
:100AE000044B5B68FB71FB7918460C37BD4680BC34
:100AF000704700BF004400400D488546FFF76EFD7B
:100B00000C480D490D4A002302E0D458C450043368
:100B1000C4188C42F9D30A4A0A4C002301E013603E
:100B20000432A242FBD300F06DF8FFF7EBFDFEE7C5
:100B3000005000200000002000000020400D0008B0
:100B40000000002020000020FEE7931E222B10B59D
:100B50000C4604D900231C460B70204610BD0A2AFF
:100B600009D1002807DA2D230B70012140422144CE
:100B700000F006F8F1E70021F9E7FFF7E6BF000013
:100B8000F0B58BB005460B466E461D4C04F1200CAB
:100B9000374620686168083403C764453E46F7D18C
:100BA000217920683971911E222938604FF00001A7
:100BB00004D919700B4618460BB0F0BD581E844678
:100BC000B5FBF2F702FB175628366E4416F8286C70
:100BD0000C460CF8016F2E46B2423D4601F1010170
:100BE000EED900225A541919A51AAA42E3DA10F8CC
:100BF000015F0E780132067001F80159F4E700BF79
:100C0000100D000870B500260C4D0D4C641BA4108F
:100C1000A64209D100F01AF800260A4D0A4C641BBE
:100C2000A410A64205D170BD55F8043B9847013683
:100C3000EEE755F8043B98470136F2E7380D000817
:100C4000380D0008380D00083C0D0008F8B500BF4D
:100C5000F8BC08BC9E467047F8B500BFF8BC08BC9D
:040C60009E467047F5
:100C64003E3E3E464F5441202044454D4F3C3C3C83
:100C74000000000053544D333220426F6F746C6F88
:100C84006164657200000000204669726D776172CC
:100C94006520557064617465000000002020524591
:100CA40051455354204143434550542020000000F3
:100CB40048656164657220726563656976696E670B
:100CC40000000000434F44452053495A45000000AA
:100CD400466C617368696E672050726F63657373E5
:100CE4000000000057616974696E670055706461A3
:100CF40074696E672050726F63657373000000003F
:100D040069732046696E69736865640030313233F3
:100D14003435363738396162636465666768696A91
:100D24006B6C6D6E6F707172737475767778797A97
:040D340000000000BB
:040D38005501000859
:040D3C003101000879
:0400000508000AF9EC
:00000001FF
