:020000040800F2
:1010000000500020291900087919000879190008F2
:101010007919000879190008791900080000000002
:101020000000000000000000000000007919000826
:10103000791900080000000079190008311600082D
:101040007919000879190008791900087919000838
:101050007919000879190008791900087919000828
:101060007919000879190008791900087919000818
:101070007919000879190008791900087919000808
:1010800079190008791900087919000879190008F8
:1010900079190008791900087919000879190008E8
:1010A00079190008791900087919000879190008D8
:1010B00079190008791900087919000879190008C8
:1010C00079190008791900087919000879190008B8
:1010D00079190008791900084D16000879190008D7
:1010E0007919000879190008000000007919000832
:1010F0007919000879190008791900087919000888
:101100007919000879190008791900087919000877
:101110007919000879190008791900087919000867
:101120007919000879190008791900087919000857
:1011300010B5054C237833B9044B13B10448AFF311
:1011400000800123237010BD00000020000000007B
:10115000C419000808B5034B1BB103490348AFF39A
:10116000008008BD0000000004000020C419000831
:1011700080B483B000AF78600B46FB701346BB7041
:10118000FB78072B15D87B681B68FA7892000F2133
:1011900001FA02F2D2431A407B681A607B681B682E
:1011A000B978FA78920001FA02F21A437B681A6061
:1011B0001AE0FB780F2B17D8FB78083BFB707B6895
:1011C0005B68FA7892000F2101FA02F2D2431A40CA
:1011D0007B685A607B685B68B978FA78920001FA9C
:1011E00002F21A437B685A6000BF0C37BD4680BCD0
:1011F000704780B483B000AF78600B46FB707B68AB
:10120000DB68FA78012101FA02F21A437B68DA609E
:1012100000BF0C37BD4680BC704780B483B000AFC0
:1012200078600B46FB707B68DB68FA78012101FA75
:1012300002F2D2431A407B68DA6000BF0C37BD4629
:1012400080BC704780B483B000AF0346FB7102E0FE
:10125000FB79013BFB71FB79002BF9D100BF00BF8B
:101260000C37BD4680BC704780B582B000AF0346E6
:10127000FB71FB79184600F0CFFA00BF0837BD4676
:1012800080BD000080B582B000AF0346FB71214BEA
:10129000DB68C3F30B02FB791B0203F470431D49A7
:1012A0001343CB601B4BDB681A4A23F48063D36083
:1012B000184BDB68174A43F40063D3600120FFF743
:1012C000C1FF144BDB68134A23F40063D360022090
:1012D000FFF7CAFF0F4BDB68C3F30B02FB791B035D
:1012E0009BB20C491343CB600A4BDB68094A43F4B9
:1012F0000063D3600120FFF7A5FF064BDB68054ABA
:1013000023F40063D3600520FFF7AEFF00BF08376A
:10131000BD4680BD000C014080B500AF1420FFF732
:10132000A3FF104BDB680F4A23F40063D360022055
:10133000FFF788FF3320FFF7A5FF3220FFF7A2FF5A
:101340002820FFF79FFF0120FFF79CFF0220FFF7F7
:1013500099FF0E20FFF796FF0620FFF793FF00BFCF
:1013600080BD00BF000C014080B582B000AF0346D5
:10137000FB71214BDB68C3F30B02FB791B0203F407
:1013800070431D491343CB601B4BDB681A4A43F47F
:101390008063D360184BDB68174A43F40063D36063
:1013A0000120FFF74FFF144BDB68134A23F400635F
:1013B000D3600120FFF758FF0F4BDB68C3F30B022C
:1013C000FB791B039BB20C491343CB600A4BDB68D0
:1013D000094A43F40063D3600120FFF733FF064B53
:1013E000DB68054A23F40063D3600520FFF73CFF68
:1013F00000BF0837BD4680BD000C014080B584B0F9
:1014000000AF78600023FB7309E0FB7B7A6813442C
:101410001B781846FFF7A8FFFB7B0133FB73FB7BB0
:101420007A6813441B78002BEFD100BF00BF103740
:10143000BD4680BD80B500AF0120FFF723FF8020AF
:10144000FFF720FF0520FFF70FFF00BF80BD80B52D
:1014500082B000AF03463A60FB710B46BB71FB796B
:10146000002B0FD1BB790F2B0CD897F9063003F066
:101470000F035BB263F07F035BB2DBB21846FFF78A
:1014800001FF11E0FB79012B0ED1BB790F2B0BD89B
:1014900097F9063003F00F035BB263F03F035BB2D2
:1014A000DBB21846FFF7EEFE3868FFF7A7FF00BF74
:1014B0000837BD4680BD000080B483B000AF03464E
:1014C000FB7197F90730002B0BDBFB7903F01F0250
:1014D000064997F907305B09012000FA02F241F84A
:1014E000232000BF0C37BD4680BC704700E100E000
:1014F00080B483B000AF0346FB7197F90730002B2F
:1015000012DBFB7903F01F020A4997F907305B09E8
:10151000012000FA02F2203341F82320BFF34F8F5D
:1015200000BFBFF36F8F00BF00BF0C37BD4680BC4C
:10153000704700BF00E100E080B400AF114B1B68B2
:10154000104A43F00103136000BF0E4B1B6803F009
:101550000203002BF9D00B4B0A4A5B685360094B1E
:10156000084A5B685360074B064A5B685360054B4B
:101570005B68044A23F00303536000BFBD4680BC90
:10158000704700BF0010024080B500AF254B9B693B
:10159000244A43F004039361224B9B69214A43F0A0
:1015A0000803936101220A211F48FFF7E1FD012290
:1015B0000B211D48FFF7DCFD01220A211B48FFF724
:1015C000D7FD01220B211948FFF7D2FD01220C2182
:1015D0001648FFF7CDFD01220D211448FFF7C8FD85
:1015E00001220E211148FFF7C3FD01220F210F48F0
:1015F000FFF7BEFD082200210B48FFF7B9FD0A4B9B
:10160000DB68094A43F00103D36008220121064840
:10161000FFF7AEFD044BDB68034A43F00203D360DF
:1016200000BF80BD0010024000080140000C0140D6
:1016300080B400AF044B1B680133034A136000BF42
:10164000BD4680BC704700BF2000002080B483B03E
:1016500000AF0A4B1B6803F02003002B08D0074B98
:101660005B68FB71FB79412B02D1054B01221A709B
:1016700000BF0C37BD4680BC704700BF004400402F
:101680001C00002080B584B000AF0023FB60FFF792
:1016900053FF00F0A5F80B214648FFF7AAFD00F024
:1016A000DFF8FFF771FFFFF737FE434A0021002004
:1016B000FFF7CDFE414A00210120FFF7C8FE4FF49D
:1016C000FA6000F0A9F82620FFF7F6FE0B21394852
:1016D000FFF78FFDC82000F09FF80B213548FFF77A
:1016E0009CFDC82000F098F8354B1B78002BEDD0FE
:1016F000FFF7A0FE334A00210020FFF7A8FE324A80
:1017000000210120FFF7A3FE2A4B9B6803F0010391
:10171000002B2AD1FFF78EFE2C4A00210020FFF774
:1017200096FE274B00221A70294BDB68284A23F0CB
:101730002003D3602620FFF7DBFE40F6B83000F030
:101740006BF84FF000631B683B603B6883F30888CD
:1017500000BF204B4FF000629A601F4B1B68BB60BC
:10176000BB687B607B689847B0E7124B9B6803F0CF
:101770000203002BAAD1FFF75DFE184A00210020CA
:10178000FFF765FE0E4B00221A70462000F0AEF8FF
:1017900040F6B83000F040F8FFF74CFE064A002152
:1017A0000020FFF754FE054A00210120FFF74FFEFD
:1017B0008CE700BF00080140DC190008F0190008A0
:1017C0001C000020041A0008141A0008281A000837
:1017D0000044004000ED00E0040000083C1A00084E
:1017E00080B400AF0B4BDB690A4A43F00103D361BD
:1017F0004FF0804300229A624FF0804341F63F72DF
:10180000DA624FF0804301221A6000BFBD4680BCFF
:10181000704700BF0010024080B485B000AF786010
:101820000023FB6012E000BF4FF080431B6903F010
:101830000103002BF8D04FF080431B694FF080422A
:1018400023F001031361FB680133FB60FA687B68D6
:101850009A42E8D300BF00BF1437BD4680BC704732
:1018600080B500AF1E4BDB691D4A43F40033D361E2
:10187000092202211B48FFF77BFC0822032119489B
:10188000FFF776FC174BDB68164A43F00803D3607A
:10189000154B0022DA60144BDB68134A23F48053A3
:1018A000D360114B40F241329A600F4BDB680E4A15
:1018B00043F02003D3600C4BDB680B4A43F0040376
:1018C000D360094BDB68084A43F00803D360064B3A
:1018D000DB68054A43F40053D36000BF80BD00BFFE
:1018E00000100240000801400044004080B483B072
:1018F00000AF0346FB7100BF0A4B1B6803F0800377
:10190000002BF9D0074AFB79536000BF054B1B68D9
:1019100003F04003002BF9D000BF00BF0C37BD46D9
:1019200080BC7047004400400D488546FFF704FE28
:101930000C480D490D4A002302E0D458C45004332A
:10194000C4188C42F9D30A4A0A4C002301E0136000
:101950000432A242FBD300F011F8FFF793FEFEE73A
:10196000005000200000002000000020581A00084D
:101970000000002024000020FEE7000070B50026D3
:101980000C4D0D4C641BA410A64209D100F01AF8AE
:1019900000260A4D0A4C641BA410A64205D170BD56
:1019A00055F8043B98470136EEE755F8043B984755
:1019B0000136F2E7501A0008501A0008501A0008C1
:1019C000541A0008F8B500BFF8BC08BC9E46704722
:0C19D000F8B500BFF8BC08BC9E4670478C
:1019DC003E3E3E464F5441202056312E323C3C3C3C
:1019EC00000000004C454420426C696E6B20302E88
:1019FC0032536563000000005570646174652052B9
:101A0C006571756573740000416363657074204F74
:101A1C00522052656A65637421000000526571752D
:101A2C006573742061636365707465640000000005
:101A3C00526571756573742072656A65637465644B
:041A4C000000000096
:041A50005511000824
:041A54003111000844
:0400000508001929AD
:00000001FF
